:1000000007C1000036C1000034C1000032C1000049
:1000100030C100002EC100002CC100002AC1000028
:1000200028C1000026C1000024C1000022C1000038
:1000300020C100001EC100001CC100001AC1000048
:1000400018C1000016C1000014C1000012C1000058
:1000500092C300000EC100000CC100000C94B20D50
:1000600008C1000022C30000F7C2000002C1000066
:1000700000C10000FEC00000FCC00000FAC000008B
:10008000F8C00000F6C00000F4C00000F2C000009C
:10009000F0C00000EEC00000ECC00000F1C30000A2
:1000A000E8C00000E6C00000E4C00000E2C00000BC
:1000B000E0C00000DEC00000DCC00000DAC00000CC
:1000C000D8C00000D6C00000D4C00000D2C00000DC
:1000D000D0C00000CEC00000CCC00000CAC00000EC
:1000E000C8C00000610C640C530C570C5B0C9B0CDB
:1000F000680C6C0C720C760C7A0C800C840C880CDE
:100100009B0C8E0C920C960C00000A0B02090C0D35
:100110000E080703040100000000000000000000BA
:1001200000000000000000000000000000000000CF
:10013000000000001211100000000000000000008C
:1001400000000000000000000000000000000000AF
:100150002200250028002B002E003100340002016F
:100160000000050108010B01000021002400270008
:100170002A002D00300033000101000004010701B6
:100180000A0105050505070508080808020202021C
:100190000A0A080804040404010101010101010123
:1001A0000303030303030303040707070C0C0C0CEE
:1001B0000C0C0C0C020202020606060606060606D7
:1001C0000B0B0B0B0B0B0B0B010210202008081064
:1001D00020401020408002010201080402010102B7
:1001E0000408102040808040201008040201800490
:1001F00002018040201008040201080402010102EB
:100200000408102040800102040810204080481299
:1002100011241FBECFEFD1E2DEBFCDBF00E00CBF87
:1002200012E0A0E0B2E0EAECFCE200E00BBF02C0AA
:1002300007900D92A438B107D9F725E0A4E8B2E001
:1002400001C01D92A838B207E1F711E0C8E0D1E083
:1002500000E006C021970109802FFE010E94571679
:10026000C730D10780E00807A9F70E94FC0D0C9465
:100270006316C6CECF92DF92EF92FF920F931F9339
:10028000CF93DF936C017A018B01C0E0D0E0CE15F3
:10029000DF0589F0D8016D918D01D601ED91FC91BA
:1002A0000190F081E02DC6011995892B11F47E0192
:1002B00002C02196ECCFC701DF91CF911F910F9122
:1002C000FF90EF90DF90CF900895FC01538D448D07
:1002D000252F30E0842F90E0821B930B541710F0F1
:1002E000CF96089501970895FC01918D828D9817FE
:1002F00061F0828DDF01A80FB11D5D968C91928D0A
:100300009F5F9F73928F90E008958FEF9FEF089506
:10031000FC01918D828D981731F0828DE80FF11DCF
:10032000858D90E008958FEF9FEF0895FC01918DEA
:10033000228D892F90E0805C9F4F821B91098F73E3
:10034000992708958BE393E0F1DF21E0892B09F4ED
:1003500020E0822F0895FC01848DDF01A80FB11DDC
:10036000A35ABF4F2C91848D90E001968F739927EB
:10037000848FA689B7892C93A089B1898C918064D8
:100380008C93938D848D981306C00288F389E02D99
:1003900080818F7D80830895EF92FF920F931F934A
:1003A000CF93DF93EC0181E0888F9B8D8C8D981328
:1003B00005C0E889F989808185FD23C0F62E0B8D63
:1003C00010E00F5F1F4F0F731127E02E8C8DE81286
:1003D0000BC00FB607FCFACFE889F989808185FF49
:1003E000F5CFCE01B8DFF2CF8B8DFE01E80FF11D06
:1003F000E35AFF4FF0820B8FEA89FB89808180628C
:1004000007C0EE89FF896083E889F989808180646B
:10041000808381E090E0DF91CF911F910F91FF9059
:10042000EF900895CF93DF93EC01888D8823C1F07E
:10043000EA89FB89808185FD05C0A889B9898C91ED
:1004400086FD0EC00FB607FCF5CF808185FFF2CF89
:10045000A889B9898C9185FFEDCFCE017CDFE8CFEB
:10046000DF91CF91089580E090E0892B19F06ADF49
:10047000811125C080E090E0892B41F080E090E080
:10048000892B21F00E94000081111CC080E090E0C7
:10049000892B41F080E090E0892B21F00E94000040
:1004A000811113C080E090E0892BA1F080E090E002
:1004B000892B81F00E94000081110AC008950E94DA
:1004C0000000D8CF0E940000E1CF0E940000EACFD8
:1004D0000C94000008950895E0911603809115038F
:1004E000E81730F4F0E0E95EFC4F808190E0089579
:1004F0008FEF9FEF08959091160380911503981741
:1005000050F4E92FF0E0E95EFC4F208130E09F5F7E
:100510009093160302C02FEF3FEFC9010895809119
:10052000150390E020911603821B91090895089508
:1005300080E090E0089585ED8093BC008091BC0040
:1005400084FDFCCF1092140308954091A602262F3B
:1005500030E0240F311D21323105DCF420911403E9
:100560002430C9F4FC0180E090E0861758F4309103
:10057000A6022191DC01AC57BD4FA30FB11D2C93F6
:100580000196F3CF8091A602680F6093A60280E0E7
:10059000089581E0089582E00895CF92DF92EF926E
:1005A000FF920F931F93CF93DF937C01262F972FFA
:1005B0008A0180913A03882391F0C62FD72F6E01CC
:1005C000C40ED51ECC15DD0569F06991D701ED91FA
:1005D000FC910190F081E02DC7011995F3CF642FB4
:1005E000822FB3DFC801DF91CF911F910F91FF9050
:1005F000EF90DF90CF900895CF93DF931F92CDB708
:10060000DEB7698320913A032223D1F0209137038A
:10061000203240F021E030E0FC013383228380E08F
:1006200090E014C080913803E82FF0E0E553FD4FCF
:10063000998190838F5F809338038093370304C040
:1006400061E0CE01019681DF81E090E00F90DF91C3
:10065000CF9108950E945F161F920F920FB60F92CE
:1006600011240BB60F922F933F934F935F936F9389
:100670007F938F939F93AF93BF93EF93FF938BE3FE
:1006800093E069DEFF91EF91BF91AF919F918F91C0
:100690007F916F915F914F913F912F910F900BBE82
:1006A0000F900FBE0F901F9018951F920F920FB6CC
:1006B0000F9211240BB60F922F938F939F93EF936A
:1006C000FF93E0914B03F0914C038081E091510343
:1006D000F091520382FD12C09081809154038F5F8C
:1006E0008F7320915503821751F0E0915403F0E08D
:1006F000E55CFC4F958F8093540301C08081FF918E
:10070000EF919F918F912F910F900BBE0F900FBE85
:100710000F901F90189508958EBD00000DB407FE30
:10072000FDCF8EB508958CBD9DBD08950F93FC013E
:1007300030E080E092E1AAE7B0E0481759076A0785
:100740007B0740F4B695A795979587953F5F363020
:10075000A1F737E091E09327222311F020E501C0B3
:1007600020E7892F86950C70082B022B008391704F
:1007700091830F9108951F920F920FB60F9211243B
:100780000BB60F922F933F934F935F936F937F938B
:100790008F939F93AF93BF93EF93FF93E0E0F0E0CD
:1007A0001995FF91EF91BF91AF919F918F917F919B
:1007B0006F915F914F913F912F910F900BBE0F90D2
:1007C0000FBE0F901F901895209137039091390319
:1007D000213208F049C0809114038111FCCF32E02E
:1007E00030931403609313033FEF3093120310927E
:1007F000110320931003ABECB2E04EEE52E0FA018D
:100800003E2F341B321718F43D913193F9CF1092DB
:100810000F0320910F03990F922B90930F03909148
:100820000E03913061F410920E0390910F03909398
:10083000BB009091BC0093FDF8CF95EC01C095EE04
:100840009093BC00909114039230E1F390911203C5
:100850009F3F79F080911203803241F08091120322
:10086000803331F084E005C081E003C082E001C044
:1008700083E0109238031092370310923A030895E0
:100880001F920F920FB60F9211240BB60F922F9357
:100890003F934F935F936F937F938F939F93AF9308
:1008A000BF93EF93FF938091B900887F803609F45E
:1008B0009CC068F5883209F45BC090F4803109F47B
:1008C00054C038F4882309F4F6C0883009F44DC0C8
:1008D000F5C0883109F44CC0803209F45DC0EEC027
:1008E000803409F468C048F4803309F455C0883373
:1008F00009F0E4C080931203D8C0803509F44FC0DA
:10090000883509F45DC0883409F0D8C0D6C088396C
:1009100009F4C7C0A8F4883709F467C038F48836EA
:1009200009F463C0803709F460C0C8C0883809F48E
:10093000B8C0803909F45FC0803809F0BFC05BC01F
:10094000803B09F486C038F4803A09F466C0883ADE
:1009500009F47FC0B3C0803C09F4A7C0883C09F407
:10096000A4C0883B09F48AC0A9C080910F0310C0BD
:100970009091110380911003981770F5E091110385
:1009800081E08E0F80931103F0E0E251FD4F8081F2
:100990008093BB0085EC86C0809312038EC0E091EB
:1009A000110381E08E0F809311038091BB00F0E072
:1009B000E251FD4F808390911103809110036EC02E
:1009C000E091110381E08E0F809311038091BB00B1
:1009D000F0E0E251FD4F80838091130381116DC0DF
:1009E00081E080930E0384EA61C083E08093140366
:1009F0001092CA02CFCF8091CA02803208F051C053
:100A0000E091CA0281E08E0F8093CA028091BB0000
:100A1000F0E0E655FD4F8083BDCF85EC8093BC00B0
:100A2000109214038091CA02803230F4E091CA021D
:100A3000F0E0E655FD4F10826091CA0270E0E0914F
:100A4000A802F091A9028AEA92E019951092CA02CE
:100A500035C084E0809314031092A7021092A6027E
:100A6000E091A402F091A50219958091A60281114E
:100A700005C081E08093A60210928402E091A70253
:100A800081E08E0F8093A702F0E0EC57FD4F80814C
:100A90008093BB009091A7028091A602981708F45A
:100AA00079CF85E88093BC0009C085EC8093BC00B9
:100AB0001092140303C0109212033DDDFF91EF91D9
:100AC000BF91AF919F918F917F916F915F914F9166
:100AD0003F912F910F900BBE0F900FBE0F901F9064
:100AE0001895009761F0FC0101900020E9F731971B
:100AF000AF01481B590BBC018BE393E0BBCB80E0FB
:100B000090E008958F929F92AF92BF920F931F93A0
:100B1000CF93DF93CDB7DEB7A1970FB6F894DEBFC2
:100B20000FBECDBF19A2423008F44AE08E010F5D1E
:100B30001F4F842E912CA12CB12CA50194010E9451
:100B40001B14E62FB901CA0101501109EA3014F44F
:100B5000E05D01C0E95CD801EC93232B242B252B0D
:100B600061F7C801BEDFA1960FB6F894DEBF0FBED5
:100B7000CDBFDF91CF911F910F91BF90AF909F900C
:100B80008F900895E0913B03F0913C030190F08138
:100B9000E02D682F8BE393E01994CF92DF92EF92D0
:100BA000FF920F931F93CF93DF931F921F92CDB7A6
:100BB000DEB7F82E162FD42EC52E8091E40388239D
:100BC00009F438C08091E503882349F04091EB0394
:100BD0005091EC036091ED037091EE0308C04091D9
:100BE000E7035091E8036091E9037091EA030CE098
:100BF00021E0CE0101969ADD89819A8194DD60E041
:100C00008091E3032FD68091E6038F2985DD0D2D9A
:100C1000ED2CFC2C8E2D801B811730F480E07CDDC8
:100C2000D7018D937D01F6CF61E08091E3031AD661
:100C300072DD89C08091D80391E090933A0380934C
:100C4000390310923803109237038091D9039091A1
:100C5000DA03DC01ED91FC910190F081E02D6F2D24
:100C6000199560E08091D9039091DA03ADDD909100
:100C7000D803809114038111FCCF812F113208F029
:100C800080E221E020931403209313033FEF30937D
:100C9000120310921103380F3093100320930F03A7
:100CA00020910F03990F922B90930F0390910E03B5
:100CB000913061F410920E0390910F039093BB005A
:100CC0009091BC0093FDF8CF95EC01C095EE909308
:100CD000BC00909114039130E1F3909111039817A7
:100CE00010F480911103AEEEB2E027E133E0F90198
:100CF0009E2F921B981718F49D919193F9CF109203
:100D000016038093150390E09093E0038093DF0334
:100D1000212F30E082179307C9F40D2DED2CFC2C08
:100D20008E2D801B811778F48091D9039091DA037E
:100D3000DC01ED91FC910284F385E02D1995F7011A
:100D400081937F01EDCF81E090E002C08FEF9FEFB4
:100D50000F900F90DF91CF911F910F91FF90EF9027
:100D6000DF90CF9008952F923F924F925F926F92B3
:100D70007F928F929F92AF92BF92CF92DF92EF922B
:100D8000FF920F931F93CF93DF93CDB7DEB76A9790
:100D90000FB6F894DEBF0FBECDBF81E08093E503B0
:100DA00041EF53E065E180912705F7DE97FDF7C23B
:100DB000A090F103B12CBA2CAA248091F203A82AA6
:100DC000B0920704A0920604C090F303D12CDC2C4F
:100DD000CC248091F403C82AD0920904C09208045C
:100DE000E090F503F12CFE2CEE248091F603E82A26
:100DF000F0920B04E0920A046091F70370E0762F02
:100E000066278091F8039B01282B3A83298330932E
:100E10001904209318048090F903912C982C8824AD
:100E20008091FA03882A90920D0480920C0400911C
:100E3000FB0310E0102F00278091FC03082B109378
:100E40000F0400930E048091FD0390E0382F2227B9
:100E50008091FE03A901482B5A8F498F50931104AA
:100E6000409310046091000470E0762F6627809113
:100E7000FF03FB01E82BFC83EB83F0931304E09367
:100E800012046091020470E0762F662780910104BD
:100E90009B01282B3E832D8330931504209314044B
:100EA0006091040470E0762F662780910304AB0103
:100EB000482B58874F835093170440931604809112
:100EC0000D0590910E059A878987E0910F05F091A5
:100ED0001005FC87EB8720911105309112053E87A4
:100EE0002D874090430450904404609045047090D6
:100EF00046048A9DB0018B9D700D9A9D700D112442
:100F0000EC9DC001ED9D900DFC9D900D1124680F8E
:100F1000791F2E9DC0012F9D900D3E9D900D112497
:100F2000680F791F072E000C880B990B0E943C1547
:100F3000A30192010E94F0152091A4043091A50410
:100F40004091A6045091A7040E943D142091B00442
:100F50003091B1044091B2045091B3040E94F01555
:100F600060931A0470931B0480931C0490931D04D7
:100F70004091130550911405588B4F8780911505AA
:100F8000909116059A8B898BE0911705F0911805C1
:100F9000FC8BEB8B4A9DB0014B9D700D5A9D700DE3
:100FA00011249C012C9DC0012D9D900D3C9D900D08
:100FB0001124680F791FEE9DC001EF9D900DFE9DDD
:100FC000900D1124680F791F072E000C880B990BC8
:100FD0000E943C15A30192010E94F0152091A804E3
:100FE0003091A9044091AA045091AB040E943D1491
:100FF0002091B4043091B5044091B6045091B704E7
:101000000E94F01560931E0470931F0480932004C7
:10101000909321044091190550911A055E8B4D8BD8
:1010200080911B0590911C05988F8F8B20901D053A
:1010300030901E054A9DC0014B9D900D5A9D900D0C
:101040001124EF89F88DEC9DB001ED9D700DFC9D94
:10105000700D1124680F791F2E9C90012F9C300D6C
:101060003E9C300D1124620F731F072E000C880B5D
:10107000990B0E943C15A30192010E94F01520914A
:10108000AC043091AD044091AE045091AF040E9485
:101090003D142091B8043091B9044091BA045091A4
:1010A000BB040E94F0156093220470932304809384
:1010B000240490932504C0904704D0904804E09005
:1010C0004904F0904A0429853A85289DC001299D4C
:1010D000900D389D900D11244B855C85409FB0018B
:1010E000419F700D509F700D1124680F791F8D85E1
:1010F0009E85E98DFA8D8E9F90018F9F300D9E9F6A
:10110000300D1124620F731F072E000C880B990BF2
:101110000E943C15A70196010E94F01520917404CD
:101120003091750440917604509177040E943D14EB
:1011300060932604709327048093280490932904D5
:101140002F853889289DB001299D700D389D700D1F
:10115000112449895A89409FC001419F900D509F99
:10116000900D1124680F791FEB89FC89298D3A8D28
:10117000E29FC001E39F900DF29F900D1124680F34
:10118000791F072E000C880B990B0E943C15A701B4
:1011900096010E94F01520917804309179044091D5
:1011A0007A0450917B040E943D1460932A0470934A
:1011B0002B0480932C0490932D044D895E89489DC7
:1011C000C001499D900D589D900D1124EF89F88D17
:1011D000E09FB001E19F700DF09F700D1124680F2A
:1011E000791F498D5A8D249E9001259E300D349E85
:1011F000300D1124620F731F072E000C880B990B02
:101200000E943C15A70196010E94F01520917C04D4
:1012100030917D0440917E0450917F040E943D14E2
:1012200060932E0470932F048093300490933104C4
:10123000EB81FC81BF01FF0F880B990B0E943C15CD
:1012400020914B0430914C0440914D0450914E0438
:101250000E94F0152091F1043091F2044091F304C2
:101260005091F4040E943D142091FD043091FE043D
:101270004091FF04509100050E94F01560933204E4
:101280007093330480933404909335042D813E8110
:10129000B901330F880B990B0E943C1520914F0424
:1012A0003091500440915104509152040E94F01525
:1012B0002091F5043091F6044091F7045091F80420
:1012C0000E943D14209101053091020540910305D3
:1012D000509104050E94F015609336047093370412
:1012E00080933804909339044F815885BA01550F83
:1012F000880B990B0E943C152091530430915404A3
:1013000040915504509156040E94F0152091F90423
:101310003091FA044091FB045091FC040E943D146A
:10132000209105053091060540910705509108056B
:101330000E94F01560933A0470933B0480933C0440
:1013400090933D04C0905B04D0905C04E0905D04F9
:10135000F0905E04E981FA81BF01FF0F880B990BC1
:101360000E943C15A70196010E943D14209157044C
:10137000309158044091590450915A040E94A61487
:10138000A70196010E943E1460933E0470933F04AF
:10139000809340049093410481E090E002C08FEF7D
:1013A0009FEF6A960FB6F894DEBF0FBECDBFDF91F8
:1013B000CF911F910F91FF90EF90DF90CF90BF9052
:1013C000AF909F908F907F906F905F904F903F90E5
:1013D0002F900895FF920F931F93CF93DF931F9247
:1013E0001F92CDB7DEB7F82E162F8091E403882325
:1013F000F1F04091E7035091E8036091E9037091A7
:10140000EA030CE021E0CE01019690D989819A810E
:101410008AD960E08091E30325D28F2D7DD9812F79
:101420007BD961E08091E3031DD275D929C08091F9
:10143000D80391E090933A038093390310923803D4
:10144000109237038091D9039091DA03DC01ED917A
:10145000FC910190F081E02D6F2D19958091D903B9
:101460009091DA03DC01ED91FC910190F081E02D87
:10147000612F199561E08091D9039091DA03A4D985
:101480006AE070E080E090E06AD241EF53E061E012
:101490008F2D83DB8091F103811719F08FEF9FEF80
:1014A00002C081E090E00F900F90DF91CF911F91EB
:1014B0000F91FF900895CF93DF93EC011092E50315
:1014C00081309105C9F01CF4892B39F04AC0823073
:1014D0009105F1F0039741F144C06091310580918D
:1014E000300578DF97FF03C08FEF9FEF40C02AEFF2
:1014F00030E04AEF5BE323C0609132058091300514
:1015000069DF97FDF1CF2AEF30E04AE75CE317C0CF
:1015100060913305809130055DDF97FDE5CF2AEFBF
:1015200030E04AEF5CE30BC06091340580913005F8
:1015300051DF97FDD9CF2AEF30E04AE75DE36091B4
:1015400023057091240580912505909126050E9420
:10155000F015609347047093480480934904909376
:101560004A04D0936204C093610481E090E0DF916B
:10157000CF9108953FB7F8948091840590918505A7
:10158000A0918605B091870526B5A89B05C02F3F81
:1015900019F00196A11DB11D3FBFBA2FA92F982F99
:1015A0008827820F911DA11DB11DBC01CD0142E014
:1015B000660F771F881F991F4A95D1F70895CF931B
:1015C000DF93EC011092E5038230910561F12CF478
:1015D000009759F00197E9F04EC084309105B9F1B8
:1015E00064F1059709F43DC046C0609136058091CD
:1015F0003505F0DE97FF03C08FEF9FEF42C060918B
:101600003D0580913C05E6DE97FF35C08EEF9FEFEC
:1016100038C06091370580913505DCDE97FDECCF51
:1016200060913E05EECF6091380580913505D2DEA0
:1016300097FDE2CF60913F05E4CF6091390580913D
:101640003505C8DE97FDD8CF60914005DACF6091AF
:101650003A0580913505BEDE97FDCECF60914105FC
:10166000D0CF60913B0580913505B4DE97FDC4CFA6
:1016700060914205C6CFD0936404C093630481E0B7
:1016800090E0DF91CF91089590E0FC01E853FE4F88
:101690002491FC01EE57FE4F8491882399F090E04D
:1016A000880F991FFC01E859FE4FA591B491FC01E8
:1016B000E25BFE4F859194918FB7F894EC91E22B09
:1016C000EC938FBF08954F925F926F927F928F92AB
:1016D0009F92AF92BF92CF92DF92EF92FF926B01F7
:1016E0007C01B42E9B01AC010E945316882319F093
:1016F00088E792E027C026013701E89477F82FEFBA
:101700003FEF4FE75FE7C301B2010E94531681111B
:101710000DC02FEF3FEF4FE75FE7C301B2010E941B
:10172000A21418161CF48CE792E00CC02FEF3FEFC8
:101730004FE75FE4C701B6010E94EC1518167CF470
:1017400080E892E0FF90EF90DF90CF90BF90AF9055
:101750009F908F907F906F905F904F90C2C92FEFB6
:101760003FEF4FE75FECC701B6010E94A21487FD6F
:10177000E7CF20E030E0A901C701B6010E94A21422
:1017800087FF08C08DE2FED94C01F7FAF094F7F814
:10179000F09402C0812C912CA12C60E070E080E0DC
:1017A0009FE3AB1441F020E030E040E251E40E94BE
:1017B000A614A394F6CF9B01AC01C701B6010E9409
:1017C0003E142B013C010E940E156B017C010E940E
:1017D0003A159B01AC01C301B2010E943D142B01DB
:1017E0003C014AE0C701B6018DD97C01E80CF91C27
:1017F000BB2021F08EE2C6D9E80EF91EDB2CDD20DD
:1018000019F120E030E040E251E4C301B2010E944E
:10181000F0152B013C010E940E154B01A12CB12C9F
:101820004AE0C501B4016ED9E80EF91EC501B40144
:101830000E943A159B01AC01C301B2010E943D1404
:101840002B013C01DA94DBCFC701FF90EF90DF90D2
:10185000CF90BF90AF909F908F907F906F905F9050
:101860004F900895362F90E0FC01E85FFE4F4491C1
:10187000FC01E853FE4F2491FC01EE57FE4F94917A
:10188000992309F46BC0442309F455C050E0FA01D0
:101890003197E231F10508F04EC08827EE58FF4F2E
:1018A0008F4F0C945716809180008F7707C08091DE
:1018B00080008F7D03C080918000877F80938000AF
:1018C0003AC084B58F7702C084B58F7D84BD33C0A4
:1018D0008091B0008F7703C08091B0008F7D80939E
:1018E000B00029C0809190008F7707C08091900050
:1018F0008F7D03C080919000877F809390001BC0F4
:101900008091A0008F7707C08091A0008F7D03C0D9
:101910008091A000877F8093A0000DC0809120015E
:101920008F7707C0809120018F7D03C080912001B7
:10193000877F80932001E92FF0E0EE0FFF1FE25B2D
:10194000FE4FA591B4918FB7F894EC91311103C07B
:1019500020952E2301C02E2B2C938FBF08958F929C
:101960009F92AF92BF92CF92DF92EF92FF926B0164
:101970007C0100DE4B015C01C114D104E104F104DF
:10198000E9F0F8DDDC01CB0188199909AA09BB0946
:10199000883E9340A105B10578F321E0C21AD10831
:1019A000E108F10888EE880E83E0981EA11CB11CA6
:1019B000C114D104E104F10421F7DECFFF90EF90D0
:1019C000DF90CF90BF90AF909F908F9008950F932E
:1019D0001F93CF93DF93D82FC62F8A0160915A05AA
:1019E00090916805692B80915505F4DC97FD1EC028
:1019F0006D2F80915605EEDC97FD1BC08091590537
:101A00006C2F682B80915805E5DC97FD15C061E0CF
:101A100070E080E090E0A3DFA8016C2F80912A05A0
:101A2000BCD89093F0038093EF0308C08FEF9FEF33
:101A300005C08EEF9FEF02C08DEF9FEFDF91CF913A
:101A40001F910F910895CF93DF93D82FC62F6091E8
:101A5000680580915505BEDC97FD23C06D2F8091F0
:101A60005605B8DC97FD20C06C2F80915705B2DC7D
:101A700097FD1DC090915905692F616080915805AF
:101A8000A9DC97FD17C041EF53E061E08D2F9FDF88
:101A900097FD13C08091F1038C1791F08AEF9FEFAF
:101AA00011C08FEF9FEF0EC08EEF9FEF0BC08DEF39
:101AB0009FEF08C08CEF9FEF05C08BEF9FEF02C038
:101AC00081E090E0DF91CF910895CF93C82F1092DD
:101AD000E50363E1809143057DDC97FD3CC06091A7
:101AE0006B0580916A05CA30A8F0ADDF97FF03C08F
:101AF0008EEF9FEF35C064E670E080E090E02FDF6E
:101B000060916C0580916A059EDF97FF0EC08DEF96
:101B10009FEF26C098DF97FDEBCF64E670E080E092
:101B200090E01DDF60916D05EDCF64E670E080E030
:101B300090E015DF41EF53E067E08091690547DFF2
:101B40006C2F8091430546DC97FD08C0C093650467
:101B500081E090E005C08FEF9FEF02C08CEF9FEF18
:101B6000CF9108951F920F920FB60F9211242F93C9
:101B70003F938F939F93AF93BF93809180059091F4
:101B80008105A0918205B091830530917F0523E006
:101B9000230F2D3720F40196A11DB11D05C026E8A5
:101BA000230F0296A11DB11D20937F058093800510
:101BB00090938105A0938205B0938305809184055D
:101BC00090918505A0918605B09187050196A11D8C
:101BD000B11D8093840590938505A0938605B093ED
:101BE0008705BF91AF919F918F913F912F910F905A
:101BF0000FBE0F901F901895789484B5826084BDB5
:101C000084B5816084BD85B5826085BD85B5816000
:101C100085BD80916E00816080936E00109281007E
:101C20008091810082608093810080918100816039
:101C300080938100809180008160809380008091FA
:101C4000B10084608093B1008091B0008160809386
:101C5000B00080919100826080939100809191000A
:101C600081608093910080919000816080939000CA
:101C70008091A10082608093A1008091A100816089
:101C80008093A1008091A00081608093A00080914A
:101C900021018260809321018091210181608093E4
:101CA00021018091200181608093200180917A0040
:101CB000846080937A0080917A00826080937A00B9
:101CC00080917A00816080937A0080917A008068A8
:101CD00080937A001092C100E0914B03F0914C0385
:101CE00082E08083E0914703F09148031082E09105
:101CF0004903F0914A038FEC808310925303E091E3
:101D00004F03F091500386E08083E0914D03F09102
:101D10004E03808180618083E0914D03F0914E03FA
:101D2000808188608083E0914D03F0914E03808133
:101D300080688083E0914D03F0914E0380818F7D18
:101D400080838091E403882309F436C01092E50370
:101D50008091E30399DC61E08091E30383DDFFB6CA
:101D6000F8948091EB02811120C0E7EBF1E08491BF
:101D7000EDEFF1E09491E82FF0E0EE0FFF1FE8594E
:101D8000FE4FA591B491EC91E92319F461E085E34C
:101D900069DD85E379DC8CB580618CBD8CB58064B0
:101DA0008CBD84E371DC83E36FDC8091EB028F5F99
:101DB0008093EB02FFBE3DC01092160310921503F4
:101DC00010923803109237031092140381E080932D
:101DD000130310920E0361E084E144DD61E085E1CC
:101DE00041DD8091B9008E7F8093B9008091B90068
:101DF0008D7F8093B90088E48093B80085E4809358
:101E0000BC002091DB033091DC034091DD03509155
:101E1000DE0360E074E284EF90E00DD5DA01C901E1
:101E20004097A109B109B695A79597958795809395
:101E3000B80060914D0580914A05CCDA97FD45C008
:101E40006091520580915105C5DA97FD41C06091BE
:101E5000530580915405BEDA97FD3DC060916B0536
:101E600080916A05F0DD60914C0580914A05B2DAF7
:101E700061E070E080E090E072DD6091700580913B
:101E80006F05E1DD60914D0580914A05A3DA97FD6C
:101E900025C041EF53E061E0809160050E94CD05CF
:101EA00097FD05C08091F103813709F4D0C041EF5F
:101EB00053E061E0809160050E94CD0597FD11C05F
:101EC0008091F103833769F4C2C08FEF9FEF51C057
:101ED0008EEF9FEF4EC08DEF9FEF4BC08CEF9FEFCB
:101EE00048C08BEF9FEF45C08091680490916904D2
:101EF000A0916A04B0916B0480937404909375046C
:101F0000A0937604B093770480916C0490916D0453
:101F1000A0916E04B0916F0480937804909379043B
:101F2000A0937A04B0937B04809170049091710423
:101F3000A0917204B091730480937C0490937D040B
:101F4000A0937E04B0937F04809161049091620419
:101F5000B2DA97FD9AC280916304909164042FDBFA
:101F600097FD93C280916504B0DD97FD8EC281E03C
:101F700090E09093ED028093EC0297FF34C084E2EE
:101F800092E00E94710584E492E00E94710587E46A
:101F900092E00E94710584E492E00E9471058DE652
:101FA00092E00E947105C090EC02D090ED020D2CE1
:101FB000000CEE08FF08F7FE0CC08DE20E94C2057F
:101FC00066277727CB016C197D098E099F094AE0A6
:101FD00003C04AE0C701B6010E94820584E492E092
:101FE0000E947105FFCF0E94B30660912604709194
:101FF0002704809128049091290446E064DB86E759
:1020000092E00E94710560912A0470912B048091E6
:102010002C0490912D0446E056DB86E792E00E9466
:10202000710560912E0470912F048091300490917D
:10203000310446E048DB84E492E00E94710564E6E6
:1020400070E080E090E08BDC0E943302CCCF6091A6
:102050004F0580914E05BED997FD14C260912F05A2
:1020600080912B05B7D997FDE6C120E030E040E82C
:1020700051E460911F057091200580912105909198
:102080002205AED520E03FEF4FEF56E45FD46093DA
:102090004304709344048093450490934604C3E042
:1020A000D0E0D0936004C0935F04609134058091C8
:1020B000300590D997FDC2C12AEF30E04AE75DE3D1
:1020C0006091230570912405809125059091260546
:1020D00087D5609347047093480480934904909394
:1020E0004A04D0936204C0936104609136058091E4
:1020F000350570D997FDA5C160913D0580913C05DE
:1021000069D997FDA1C1109264041092630460E044
:10211000809143055FD997FD9AC110926504609143
:1021200052058091510556D997FD94C16091530590
:10213000809154054FD997FD90C141EF53E061E084
:102140008091720544DC97FD8BC18091F103883446
:1021500009F086C160916B0580916A0574DC97FD7A
:1021600082C164E670E080E090E0F9DB60916E058A
:1021700080916A0568DC97FD79C164E670E080E0D3
:1021800090E0EDDB41EF53E063E0809171051FDCEF
:102190006091F10370E080E090E06CD420E030E0EA
:1021A00040E053E46AD320E030E040E85BE318D538
:1021B00020E030E040E85FE361D320E030E849E927
:1021C00055E40ED520E030EF4FEF56E4BFD36093D7
:1021D0004B0470934C0480934D0490934E04609193
:1021E000F20370E080E090E045D420E030E040E091
:1021F00053E443D320E030E040E85BE3F1D420E057
:1022000030E040E85FE33AD320E030E849E955E4C4
:10221000E7D420E030EF4FEF56E498D360934F04BB
:102220007093500480935104909352046091F3038F
:1022300070E080E090E01ED420E030E040E053E425
:102240001CD320E030E040E85BE3CAD420E030E07B
:1022500040E85FE313D320E030E849E955E4C0D417
:1022600020E030EF4FEF56E471D360935304709346
:102270005404809355049093560460916B058091AB
:102280006A05E1DB97FDF5C064E670E080E090E070
:1022900066DB60916D0580916A05D5DB97FDECC02A
:1022A00064E670E080E090E05ADB60914D0580913B
:1022B0004A0590D897FDE3C041EF53E067E0809175
:1022C000690585DB80E090E0F6D897FDDEC083E00D
:1022D00090E075D997FDD9C083E1F7DB97FDD5C0B4
:1022E000109268041092690410926A0410926B04B0
:1022F00010926C0410926D0410926E0410926F0490
:10230000109270041092710410927204109273046F
:10231000E12CF12C8091660490916704E816F9068F
:1023200008F0E2CD0E94B3066091660470916704E4
:1023300080E090E09FD34B015C01209174043091C8
:102340007504409176045091770460912604709151
:102350002704809128049091290490D2A50194012A
:10236000F5D29B01AC016091680470916904809181
:102370006A0490916B0482D260936804709369043C
:1023800080936A0490936B042091780430917904CF
:1023900040917A0450917B0460912A0470912B043F
:1023A00080912C0490912D0469D2A5019401CED284
:1023B0009B01AC0160916C0470916D0480916E047E
:1023C00090916F045BD260936C0470936D04809362
:1023D0006E0490936F0460912E0470912F0480918D
:1023E00030049091310420917C0430917D0440911F
:1023F0007E0450917F0442D2A5019401A7D29B0193
:10240000AC0160917004709171048091720490919C
:10241000730434D2609370047093710480937204D7
:102420009093730464E170E080E090E098DA8FEFBD
:10243000E81AF80A6FCF89EF9FEF9BCD88EF9FEFE7
:1024400098CD87EF9FEF95CD86EF9FEF92CD85EFEB
:102450009FEF8FCD84EF9FEF8CCD83EF9FEF89CDE2
:1024600082EF9FEF86CD81EF9FEF83CD80EF9FEFCF
:1024700080CD8FEE9FEF7DCD8EEE9FEF7ACD8DEEEE
:102480009FEF77CD8AEF9FEF74CD8CEE9FEF71CDEC
:102490000F931F93CF93DF93EBE3F3E0138212824A
:1024A00048EE53E060E070E04483558366837783B1
:1024B00084E092E09183808385EC90E09587848727
:1024C00084EC90E09787868780EC90E0918B808BFE
:1024D00081EC90E0938B828B82EC90E0958B848BE7
:1024E00086EC90E0978B868B118E128E138E148E55
:1024F000A3E7B5E013961C921E92129714964D9383
:102500005D936D937C93179786E192E011969C936F
:102510008E93E8EDF3E040E85AE166E070E0438333
:1025200054836583768390E8968740E452E46FE0B5
:1025300070E04787508B618B728B40EC51EE64EEFC
:1025400070E0438B548B658B768B4CE55FEE66EACF
:1025500073E4409357045093580460935904709364
:102560005A0440E050E068EA71E440935B04509301
:102570005C0460935D0470935E0424E630E0309365
:1025800067042093660440E050E060E87FE34093F6
:10259000B0045093B1046093B2047093B3044093B9
:1025A000B4045093B5046093B6047093B704409399
:1025B000B8045093B9046093BA047093BB0428EE36
:1025C00033E03093BD042093BC040AE919E929E9FA
:1025D0003EE30093BE041093BF042093C0043093E5
:1025E000C10428E02093C2044093FD045093FE04EC
:1025F0006093FF047093000540930105509302051A
:1026000060930305709304054093050550930605F8
:10261000609307057093080510920E0510920D0542
:1026200041E050E05093100540930F0510921205C1
:10263000109211055093140540931305109216053E
:1026400010921505109218051092170510921A0590
:102650001092190510921C0510921B054FEF5FEFA9
:1026600050931E0540931D0549E759EE6CE171E456
:1026700040931F0550932005609321057093220518
:1026800045E35AEF6EE87CE340932305509324051D
:1026900060932505709326058BE38093270583E4DB
:1026A0008093280581E48093290589E480932A0595
:1026B0008CE180932B0510922C0520932D0530E1A1
:1026C00030932E0588E180932F054BE14093300530
:1026D00010923105209332053093330580933405F1
:1026E0008DE18093350581E080933605C2E0C0938B
:1026F000370543E04093380574E07093390565E091
:1027000060933A0556E050933B05DAE1D0933C05DF
:1027100080933D05C0933E0540933F05709340056F
:10272000609341055093420559E15093430557E3A7
:102730005093440558E35093450510924605109276
:10274000470550E450934805809349056BE6609334
:102750004A0560E260934B0590934C0580934D05CC
:102760007CE670934E0510924F0577E0709350050C
:102770007AE670935105609352056DE060935305BE
:1027800064E26093540565E26093550566E26093E8
:10279000560563E66093570567E26093580590938A
:1027A000590590935A0569E660935B0590935C0523
:1027B00050935D055EE150935E055FE150935F05C8
:1027C00055E75093600553E250936105909362057D
:1027D00090E790936305209364058093650592E7E5
:1027E0009093660594E7909367059CE09093680545
:1027F000409369059AE090936A0510926B0592E107
:1028000090936C0596E190936D059FE090936E0513
:102810009BE090936F058093700530937105109243
:102820007205B283A18388E680831486DF91CF91FD
:102830001F910F910895A1E21A2EAA1BBB1BFD0147
:102840000DC0AA1FBB1FEE1FFF1FA217B307E4078F
:10285000F50720F0A21BB30BE40BF50B661F771FE7
:10286000881F991F1A9469F76095709580959095C7
:102870009B01AC01BD01CF0108955058BB27AA2789
:102880000ED070C161D130F066D120F031F49F3F9D
:1028900011F41EF456C10EF4E095E7FB4CC1E92F8C
:1028A00072D180F3BA17620773078407950718F08F
:1028B00071F49EF58AC10EF4E0950B2EBA2FA02D6F
:1028C0000B01B90190010C01CA01A0011124FF27DD
:1028D000591B99F0593F50F4503E68F11A16F040D8
:1028E000A22F232F342F4427585FF3CF46953795D7
:1028F0002795A795F0405395C9F77EF41F16BA0B9C
:10290000620B730B840BBAF09150A1F0FF0FBB1F49
:10291000661F771F881FC2F70EC0BA0F621F731F92
:10292000841F48F4879577956795B795F7959E3FEF
:1029300008F0B3CF9395880F08F09927EE0F97957D
:1029400087950895D4D008F481E008950CD00AC189
:1029500002D140F0F9D030F021F45F3F19F0EBC024
:10296000511134C1EEC00FD198F39923C9F3552307
:10297000B1F3951B550BBB27AA2762177307840772
:1029800038F09F5F5F4F220F331F441FAA1FA9F328
:1029900033D00E2E3AF0E0E830D091505040E6951A
:1029A000001CCAF729D0FE2F27D0660F771F881F7B
:1029B000BB1F261737074807AB07B0E809F0BB0B6A
:1029C000802DBF01FF2793585F4F2AF09E3F51058E
:1029D00068F0B1C0FBC05F3FECF3983EDCF3869536
:1029E00077956795B795F7959F5FC9F7880F911D04
:1029F0009695879597F90895E1E0660F771F881FF0
:102A0000BB1F621773078407BA0720F0621B730BA2
:102A1000840BBA0BEE1F88F7E0950895BCD088F0C0
:102A20009F5790F0B92F9927B751A0F0D1F0660FBA
:102A3000771F881F991F1AF0BA95C9F712C0B130D5
:102A400081F0C3D0B1E00895C0C0672F782F8827E8
:102A5000B85F39F0B93FCCF3869577956795B39514
:102A6000D9F73EF490958095709561957F4F8F4F83
:102A70009F4F0895E89409C097FB3EF49095809588
:102A8000709561957F4F8F4F9F4F9923A9F0F92F34
:102A900096E9BB279395F695879577956795B795B2
:102AA000F111F8CFFAF4BB0F11F460FF1BC06F5F98
:102AB0007F4F8F4F9F4F16C0882311F096E911C0AA
:102AC000772321F09EE8872F762F05C0662371F0CB
:102AD00096E8862F70E060E02AF09A95660F771FDF
:102AE000881FDAF7880F9695879597F90895990FBB
:102AF0000008550FAA0BE0E8FEEF16161706E807C8
:102B0000F907C0F012161306E407F50798F0621BE8
:102B1000730B840B950B39F40A2661F0232B242BBD
:102B2000252B21F408950A2609F4A140A6958FEFDC
:102B3000811D811D089597F99F6780E870E060E02E
:102B400008959FEF80EC089500240A941616170646
:102B500018060906089500240A941216130614068E
:102B600005060895092E0394000C11F4882352F0F1
:102B7000BB0F40F4BF2B11F460FF04C06F5F7F4FA9
:102B80008F4F9F4F089557FD9058440F551F59F090
:102B90005F3F71F04795880F97FB991F61F09F3F4A
:102BA00079F087950895121613061406551FF2CF73
:102BB0004695F1DF08C0161617061806991FF1CFC3
:102BC00086957105610508940895E894BB276627EA
:102BD0007727CB0197F908958ADF08F48FEF0895DE
:102BE0000BD0C0CFB1DF28F0B6DF18F0952309F085
:102BF000A2CFA7CF1124EACFC6DFA0F3959FD1F3D0
:102C0000950F50E0551F629FF001729FBB27F00D9A
:102C1000B11D639FAA27F00DB11DAA1F649F6627EF
:102C2000B00DA11D661F829F2227B00DA11D621F3E
:102C3000739FB00DA11D621F839FA00D611D221FF8
:102C4000749F3327A00D611D231F849F600D211DDC
:102C5000822F762F6A2F11249F5750408AF0E1F07F
:102C600088234AF0EE0FFF1FBB1F661F771F881FC8
:102C700091505040A9F79E3F510570F05CCFA6CF10
:102C80005F3FECF3983EDCF3869577956795B795B3
:102C9000F795E7959F5FC1F7FE2B880F911D9695DD
:102CA000879597F9089523DF880B990B0895EE0F08
:102CB000FF1F881F8BBF0790F691E02D199481E0CC
:0A2CC00090E0F89400C0F894FFCFF4
:102CCA0000000000CC013A0165011202960174016C
:102CDA00880100000000FC02CD0298026B028F02FC
:102CEA007B026C02494D5520696E697469616C6991
:102CFA007A6174696F6E20756E7375636365737339
:102D0A0066756C000D0A00436865636B20494D5572
:102D1A0020776972696E67206F72207472792063F6
:102D2A0079636C696E6720706F776572005374619E
:102D3A007475733A200009006E616E00696E660050
:042D4A006F7666003A
:00000001FF
